{
  "_format": "hh-sol-artifact-1",
  "contractName": "Vote",
  "sourceName": "contracts/Vote.sol",
  "abi": [
    {
      "inputs": [
        {
          "internalType": "string",
          "name": "_nom",
          "type": "string"
        },
        {
          "internalType": "string",
          "name": "_prenom",
          "type": "string"
        },
        {
          "internalType": "enum Vote.Poste",
          "name": "_poste",
          "type": "uint8"
        },
        {
          "internalType": "address",
          "name": "_clef",
          "type": "address"
        }
      ],
      "name": "addMember",
      "outputs": [],
      "stateMutability": "nonpayable",
      "type": "function"
    },
    {
      "inputs": [
        {
          "internalType": "string",
          "name": "_nom",
          "type": "string"
        },
        {
          "internalType": "string",
          "name": "_description",
          "type": "string"
        }
      ],
      "name": "addProject",
      "outputs": [],
      "stateMutability": "nonpayable",
      "type": "function"
    },
    {
      "inputs": [
        {
          "internalType": "uint256",
          "name": "_debut",
          "type": "uint256"
        },
        {
          "internalType": "uint256",
          "name": "_fin",
          "type": "uint256"
        }
      ],
      "name": "addSession",
      "outputs": [],
      "stateMutability": "nonpayable",
      "type": "function"
    },
    {
      "inputs": [
        {
          "internalType": "address",
          "name": "",
          "type": "address"
        }
      ],
      "name": "addressExists",
      "outputs": [
        {
          "internalType": "bool",
          "name": "",
          "type": "bool"
        }
      ],
      "stateMutability": "view",
      "type": "function"
    },
    {
      "inputs": [
        {
          "internalType": "address",
          "name": "_member",
          "type": "address"
        }
      ],
      "name": "desactive",
      "outputs": [],
      "stateMutability": "nonpayable",
      "type": "function"
    },
    {
      "inputs": [
        {
          "internalType": "uint256",
          "name": "index",
          "type": "uint256"
        }
      ],
      "name": "getMemberAddressByIndex",
      "outputs": [
        {
          "internalType": "address",
          "name": "",
          "type": "address"
        }
      ],
      "stateMutability": "view",
      "type": "function"
    },
    {
      "inputs": [
        {
          "internalType": "uint256",
          "name": "projectId",
          "type": "uint256"
        },
        {
          "internalType": "uint256",
          "name": "sessionId",
          "type": "uint256"
        }
      ],
      "name": "getProject",
      "outputs": [
        {
          "internalType": "string",
          "name": "nom",
          "type": "string"
        },
        {
          "internalType": "string",
          "name": "description",
          "type": "string"
        },
        {
          "internalType": "uint256",
          "name": "voteCounter",
          "type": "uint256"
        }
      ],
      "stateMutability": "view",
      "type": "function"
    },
    {
      "inputs": [
        {
          "internalType": "uint256",
          "name": "sessionId",
          "type": "uint256"
        }
      ],
      "name": "getProjects",
      "outputs": [
        {
          "components": [
            {
              "internalType": "string",
              "name": "nom",
              "type": "string"
            },
            {
              "internalType": "string",
              "name": "description",
              "type": "string"
            },
            {
              "internalType": "uint256",
              "name": "voteCounter",
              "type": "uint256"
            }
          ],
          "internalType": "struct Vote.Projet[]",
          "name": "",
          "type": "tuple[]"
        }
      ],
      "stateMutability": "view",
      "type": "function"
    },
    {
      "inputs": [
        {
          "internalType": "uint256",
          "name": "sessionId",
          "type": "uint256"
        }
      ],
      "name": "getSessionState",
      "outputs": [
        {
          "internalType": "enum Vote.Etat",
          "name": "",
          "type": "uint8"
        }
      ],
      "stateMutability": "view",
      "type": "function"
    },
    {
      "inputs": [],
      "name": "getSessionState1",
      "outputs": [
        {
          "internalType": "enum Vote.Etat",
          "name": "",
          "type": "uint8"
        }
      ],
      "stateMutability": "view",
      "type": "function"
    },
    {
      "inputs": [],
      "name": "getTotalMembers",
      "outputs": [
        {
          "internalType": "uint256",
          "name": "",
          "type": "uint256"
        }
      ],
      "stateMutability": "view",
      "type": "function"
    },
    {
      "inputs": [],
      "name": "getTotalSessions",
      "outputs": [
        {
          "internalType": "uint256",
          "name": "total",
          "type": "uint256"
        }
      ],
      "stateMutability": "view",
      "type": "function"
    },
    {
      "inputs": [],
      "name": "inscription",
      "outputs": [],
      "stateMutability": "nonpayable",
      "type": "function"
    },
    {
      "inputs": [
        {
          "internalType": "uint256",
          "name": "",
          "type": "uint256"
        }
      ],
      "name": "memberAddresses",
      "outputs": [
        {
          "internalType": "address",
          "name": "",
          "type": "address"
        }
      ],
      "stateMutability": "view",
      "type": "function"
    },
    {
      "inputs": [
        {
          "internalType": "address",
          "name": "",
          "type": "address"
        }
      ],
      "name": "members",
      "outputs": [
        {
          "internalType": "string",
          "name": "nom",
          "type": "string"
        },
        {
          "internalType": "string",
          "name": "prenom",
          "type": "string"
        },
        {
          "internalType": "enum Vote.Poste",
          "name": "poste",
          "type": "uint8"
        },
        {
          "internalType": "address",
          "name": "clef",
          "type": "address"
        },
        {
          "internalType": "bool",
          "name": "voter",
          "type": "bool"
        },
        {
          "internalType": "enum Vote.StatutMember",
          "name": "statut",
          "type": "uint8"
        }
      ],
      "stateMutability": "view",
      "type": "function"
    },
    {
      "inputs": [
        {
          "internalType": "address",
          "name": "_member",
          "type": "address"
        }
      ],
      "name": "reactive",
      "outputs": [],
      "stateMutability": "nonpayable",
      "type": "function"
    },
    {
      "inputs": [],
      "name": "sessionCounter",
      "outputs": [
        {
          "internalType": "uint256",
          "name": "_value",
          "type": "uint256"
        }
      ],
      "stateMutability": "view",
      "type": "function"
    },
    {
      "inputs": [
        {
          "internalType": "uint256",
          "name": "",
          "type": "uint256"
        }
      ],
      "name": "sessions",
      "outputs": [
        {
          "internalType": "uint256",
          "name": "debut",
          "type": "uint256"
        },
        {
          "internalType": "uint256",
          "name": "fin",
          "type": "uint256"
        },
        {
          "components": [
            {
              "internalType": "uint256",
              "name": "_value",
              "type": "uint256"
            }
          ],
          "internalType": "struct Counters.Counter",
          "name": "projectCounter",
          "type": "tuple"
        },
        {
          "internalType": "enum Vote.Etat",
          "name": "state",
          "type": "uint8"
        }
      ],
      "stateMutability": "view",
      "type": "function"
    },
    {
      "inputs": [],
      "name": "totalSessions",
      "outputs": [
        {
          "internalType": "uint256",
          "name": "",
          "type": "uint256"
        }
      ],
      "stateMutability": "view",
      "type": "function"
    },
    {
      "inputs": [
        {
          "internalType": "address",
          "name": "_addr",
          "type": "address"
        },
        {
          "internalType": "string",
          "name": "_nom",
          "type": "string"
        },
        {
          "internalType": "string",
          "name": "_prenom",
          "type": "string"
        },
        {
          "internalType": "enum Vote.Poste",
          "name": "_poste",
          "type": "uint8"
        }
      ],
      "name": "updateMember",
      "outputs": [],
      "stateMutability": "nonpayable",
      "type": "function"
    },
    {
      "inputs": [
        {
          "internalType": "uint256",
          "name": "_id",
          "type": "uint256"
        },
        {
          "internalType": "string",
          "name": "_nom",
          "type": "string"
        },
        {
          "internalType": "string",
          "name": "_description",
          "type": "string"
        }
      ],
      "name": "updateProject",
      "outputs": [],
      "stateMutability": "nonpayable",
      "type": "function"
    },
    {
      "inputs": [
        {
          "internalType": "uint256",
          "name": "_id",
          "type": "uint256"
        },
        {
          "internalType": "uint256",
          "name": "_debut",
          "type": "uint256"
        },
        {
          "internalType": "uint256",
          "name": "_fin",
          "type": "uint256"
        }
      ],
      "name": "updateSession",
      "outputs": [],
      "stateMutability": "nonpayable",
      "type": "function"
    },
    {
      "inputs": [],
      "name": "updateSessionState",
      "outputs": [],
      "stateMutability": "nonpayable",
      "type": "function"
    },
    {
      "inputs": [
        {
          "internalType": "uint256",
          "name": "_id",
          "type": "uint256"
        }
      ],
      "name": "voting",
      "outputs": [],
      "stateMutability": "nonpayable",
      "type": "function"
    }
  ],
  "bytecode": "0x608060405234801561001057600080fd5b50613871806100206000396000f3fe608060405234801561001057600080fd5b50600436106101575760003560e01c80638f180305116100c3578063c518dce11161007c578063c518dce1146103cc578063cc4e6299146103e8578063cc64e2af14610418578063d96249d314610436578063f2a7894a14610440578063fd4a77f11461047057610157565b80638f1803051461030e5780638f70041e1461032c578063980c308d14610348578063a1da4bbc14610364578063a502522214610380578063a7c16a3e146103b057610157565b806349df94641161011557806349df9464146102215780636073e4b7146102535780636f5db0b51461027157806383c4b7a31461028f578063885b551e146102c25780638c4c1347146102f257610157565b8062503feb1461015c57806308ae4b0c146101665780630c88920d1461019b57806314ea639d146101b757806320628b48146101d3578063292258bd14610203575b600080fd5b61016461048c565b005b610180600480360381019061017b91906125ca565b6105f4565b60405161019296959493929190612770565b60405180910390f35b6101b560048036038101906101b091906125ca565b610787565b005b6101d160048036038101906101cc9190612815565b610a32565b005b6101ed60048036038101906101e89190612855565b610aeb565b6040516101fa91906129f4565b60405180910390f35b61020b610cfc565b6040516102189190612a5e565b60405180910390f35b61023b60048036038101906102369190612815565b610d35565b60405161024a93929190612a88565b60405180910390f35b61025b610e9d565b6040516102689190612acd565b60405180910390f35b610279610ea7565b6040516102869190612acd565b60405180910390f35b6102a960048036038101906102a49190612855565b610ead565b6040516102b99493929190612b04565b60405180910390f35b6102dc60048036038101906102d79190612855565b610efe565b6040516102e99190612a5e565b60405180910390f35b61030c60048036038101906103079190612c7e565b610f2b565b005b6103166110f0565b6040516103239190612acd565b60405180910390f35b61034660048036038101906103419190612d2e565b6110fa565b005b610362600480360381019061035d9190612dcd565b611296565b005b61037e60048036038101906103799190612e45565b611495565b005b61039a600480360381019061039591906125ca565b61173b565b6040516103a79190612e98565b60405180910390f35b6103ca60048036038101906103c591906125ca565b61175b565b005b6103e660048036038101906103e19190612eb3565b611a05565b005b61040260048036038101906103fd9190612855565b611dc3565b60405161040f9190612f52565b60405180910390f35b610420611e02565b60405161042d9190612acd565b60405180910390f35b61043e611e0e565b005b61045a60048036038101906104559190612855565b61208a565b6040516104679190612f52565b60405180910390f35b61048a60048036038101906104859190612855565b612116565b005b600060018111156104a05761049f612687565b5b600560003373ffffffffffffffffffffffffffffffffffffffff1673ffffffffffffffffffffffffffffffffffffffff16815260200190815260200160002060020160009054906101000a900460ff16600181111561050257610501612687565b5b14610542576040517f08c379a000000000000000000000000000000000000000000000000000000000815260040161053990612fb9565b60405180910390fd5b60006001600060016002546105579190613008565b815260200190815260200160002090504281600001541115801561057f575042816001015410155b156105b65760018160050160006101000a81548160ff021916908360028111156105ac576105ab612687565b5b02179055506105f1565b42816001015410156105f05760028160050160006101000a81548160ff021916908360028111156105ea576105e9612687565b5b02179055505b5b50565b60056020528060005260406000206000915090508060000180546106179061306b565b80601f01602080910402602001604051908101604052809291908181526020018280546106439061306b565b80156106905780601f1061066557610100808354040283529160200191610690565b820191906000526020600020905b81548152906001019060200180831161067357829003601f168201915b5050505050908060010180546106a59061306b565b80601f01602080910402602001604051908101604052809291908181526020018280546106d19061306b565b801561071e5780601f106106f35761010080835404028352916020019161071e565b820191906000526020600020905b81548152906001019060200180831161070157829003601f168201915b5050505050908060020160009054906101000a900460ff16908060020160019054906101000a900473ffffffffffffffffffffffffffffffffffffffff16908060020160159054906101000a900460ff16908060020160169054906101000a900460ff16905086565b600073ffffffffffffffffffffffffffffffffffffffff16600560003373ffffffffffffffffffffffffffffffffffffffff1673ffffffffffffffffffffffffffffffffffffffff16815260200190815260200160002060020160019054906101000a900473ffffffffffffffffffffffffffffffffffffffff1673ffffffffffffffffffffffffffffffffffffffff1603610858576040517f08c379a000000000000000000000000000000000000000000000000000000000815260040161084f9061310e565b60405180910390fd5b6000600181111561086c5761086b612687565b5b600560003373ffffffffffffffffffffffffffffffffffffffff1673ffffffffffffffffffffffffffffffffffffffff16815260200190815260200160002060020160169054906101000a900460ff1660018111156108ce576108cd612687565b5b1461090e576040517f08c379a0000000000000000000000000000000000000000000000000000000008152600401610905906131a0565b60405180910390fd5b6000600181111561092257610921612687565b5b600560003373ffffffffffffffffffffffffffffffffffffffff1673ffffffffffffffffffffffffffffffffffffffff16815260200190815260200160002060020160009054906101000a900460ff16600181111561098457610983612687565b5b146109c4576040517f08c379a00000000000000000000000000000000000000000000000000000000081526004016109bb90612fb9565b60405180910390fd5b6001600560008373ffffffffffffffffffffffffffffffffffffffff1673ffffffffffffffffffffffffffffffffffffffff16815260200190815260200160002060020160166101000a81548160ff02191690836001811115610a2a57610a29612687565b5b021790555050565b808210610a74576040517f08c379a0000000000000000000000000000000000000000000000000000000008152600401610a6b9061320c565b60405180910390fd5b6000600160006002548152602001908152602001600020905082816000018190555081816001018190555060008160050160006101000a81548160ff02191690836002811115610ac757610ac6612687565b5b0217905550610ad66000612513565b610ae06000612529565b600281905550505050565b606060006001600084815260200190815260200160002090506000610b1282600301612529565b905060008167ffffffffffffffff811115610b3057610b2f612b53565b5b604051908082528060200260200182016040528015610b6957816020015b610b56612537565b815260200190600190039081610b4e5790505b50905060005b82811015610cf057836004016000828152602001908152602001600020604051806060016040529081600082018054610ba79061306b565b80601f0160208091040260200160405190810160405280929190818152602001828054610bd39061306b565b8015610c205780601f10610bf557610100808354040283529160200191610c20565b820191906000526020600020905b815481529060010190602001808311610c0357829003601f168201915b50505050508152602001600182018054610c399061306b565b80601f0160208091040260200160405190810160405280929190818152602001828054610c659061306b565b8015610cb25780601f10610c8757610100808354040283529160200191610cb2565b820191906000526020600020905b815481529060010190602001808311610c9557829003601f168201915b50505050508152602001600282015481525050828281518110610cd857610cd761322c565b5b60200260200101819052508080600101915050610b6f565b50809350505050919050565b6000600160006001600254610d119190613008565b815260200190815260200160002060050160009054906101000a900460ff16905090565b6060806000806001600086815260200190815260200160002090506000816004016000888152602001908152602001600020905080600001816001018260020154828054610d829061306b565b80601f0160208091040260200160405190810160405280929190818152602001828054610dae9061306b565b8015610dfb5780601f10610dd057610100808354040283529160200191610dfb565b820191906000526020600020905b815481529060010190602001808311610dde57829003601f168201915b50505050509250818054610e0e9061306b565b80601f0160208091040260200160405190810160405280929190818152602001828054610e3a9061306b565b8015610e875780601f10610e5c57610100808354040283529160200191610e87565b820191906000526020600020905b815481529060010190602001808311610e6a57829003601f168201915b5050505050915094509450945050509250925092565b6000600254905090565b60025481565b600160205280600052604060002060009150905080600001549080600101549080600301604051806020016040529081600082015481525050908060050160009054906101000a900460ff16905084565b60006001600083815260200190815260200160002060050160009054906101000a900460ff169050919050565b60006002811115610f3f57610f3e612687565b5b600160006001600254610f529190613008565b815260200190815260200160002060050160009054906101000a900460ff166002811115610f8357610f82612687565b5b14610fc3576040517f08c379a0000000000000000000000000000000000000000000000000000000008152600401610fba906132a7565b60405180910390fd5b60006001811115610fd757610fd6612687565b5b600560003373ffffffffffffffffffffffffffffffffffffffff1673ffffffffffffffffffffffffffffffffffffffff16815260200190815260200160002060020160009054906101000a900460ff16600181111561103957611038612687565b5b14611079576040517f08c379a000000000000000000000000000000000000000000000000000000000815260040161107090612fb9565b60405180910390fd5b600060016000600160025461108e9190613008565b815260200190815260200160002090508281600401600086815260200190815260200160002060000190816110c39190613473565b508181600401600086815260200190815260200160002060010190816110e99190613473565b5050505050565b6000600454905090565b600760008573ffffffffffffffffffffffffffffffffffffffff1673ffffffffffffffffffffffffffffffffffffffff16815260200190815260200160002060009054906101000a900460ff16611186576040517f08c379a000000000000000000000000000000000000000000000000000000000815260040161117d90613591565b60405180910390fd5b82600560008673ffffffffffffffffffffffffffffffffffffffff1673ffffffffffffffffffffffffffffffffffffffff16815260200190815260200160002060000190816111d59190613473565b5081600560008673ffffffffffffffffffffffffffffffffffffffff1673ffffffffffffffffffffffffffffffffffffffff16815260200190815260200160002060010190816112259190613473565b5080600560008673ffffffffffffffffffffffffffffffffffffffff1673ffffffffffffffffffffffffffffffffffffffff16815260200190815260200160002060020160006101000a81548160ff0219169083600181111561128b5761128a612687565b5b021790555050505050565b600060018111156112aa576112a9612687565b5b600560003373ffffffffffffffffffffffffffffffffffffffff1673ffffffffffffffffffffffffffffffffffffffff16815260200190815260200160002060020160009054906101000a900460ff16600181111561130c5761130b612687565b5b1461134c576040517f08c379a000000000000000000000000000000000000000000000000000000000815260040161134390612fb9565b60405180910390fd5b600060028111156113605761135f612687565b5b6001600060016002546113739190613008565b815260200190815260200160002060050160009054906101000a900460ff1660028111156113a4576113a3612687565b5b146113e4576040517f08c379a00000000000000000000000000000000000000000000000000000000081526004016113db906132a7565b60405180910390fd5b60006001600060016002546113f99190613008565b81526020019081526020016000209050600061141782600301612529565b905060405180606001604052808581526020018481526020016000815250826004016000838152602001908152602001600020600082015181600001908161145f9190613473565b5060208201518160010190816114759190613473565b506040820151816002015590505061148f82600301612513565b50505050565b6001600060016002546114a89190613008565b8152602001908152602001600020600101546001600060016002546114cd9190613008565b815260200190815260200160002060000154111580611510575060006001600060016002546114fc9190613008565b815260200190815260200160002060010154145b61154f576040517f08c379a0000000000000000000000000000000000000000000000000000000008152600401611546906135fd565b60405180910390fd5b6000600281111561156357611562612687565b5b6001600060016002546115769190613008565b815260200190815260200160002060050160009054906101000a900460ff1660028111156115a7576115a6612687565b5b146115e7576040517f08c379a00000000000000000000000000000000000000000000000000000000081526004016115de906132a7565b60405180910390fd5b600060018111156115fb576115fa612687565b5b600560003373ffffffffffffffffffffffffffffffffffffffff1673ffffffffffffffffffffffffffffffffffffffff16815260200190815260200160002060020160009054906101000a900460ff16600181111561165d5761165c612687565b5b1461169d576040517f08c379a000000000000000000000000000000000000000000000000000000000815260040161169490612fb9565b60405180910390fd5b8082106116df576040517f08c379a00000000000000000000000000000000000000000000000000000000081526004016116d69061320c565b60405180910390fd5b600060016000858152602001908152602001600020905082816000018190555081816001018190555060008160050160006101000a81548160ff021916908360028111156117305761172f612687565b5b021790555050505050565b60076020528060005260406000206000915054906101000a900460ff1681565b600073ffffffffffffffffffffffffffffffffffffffff16600560003373ffffffffffffffffffffffffffffffffffffffff1673ffffffffffffffffffffffffffffffffffffffff16815260200190815260200160002060020160019054906101000a900473ffffffffffffffffffffffffffffffffffffffff1673ffffffffffffffffffffffffffffffffffffffff160361182c576040517f08c379a00000000000000000000000000000000000000000000000000000000081526004016118239061310e565b60405180910390fd5b60018081111561183f5761183e612687565b5b600560003373ffffffffffffffffffffffffffffffffffffffff1673ffffffffffffffffffffffffffffffffffffffff16815260200190815260200160002060020160169054906101000a900460ff1660018111156118a1576118a0612687565b5b146118e1576040517f08c379a00000000000000000000000000000000000000000000000000000000081526004016118d8906131a0565b60405180910390fd5b600060018111156118f5576118f4612687565b5b600560003373ffffffffffffffffffffffffffffffffffffffff1673ffffffffffffffffffffffffffffffffffffffff16815260200190815260200160002060020160009054906101000a900460ff16600181111561195757611956612687565b5b14611997576040517f08c379a000000000000000000000000000000000000000000000000000000000815260040161198e90612fb9565b60405180910390fd5b6000600560008373ffffffffffffffffffffffffffffffffffffffff1673ffffffffffffffffffffffffffffffffffffffff16815260200190815260200160002060020160166101000a81548160ff021916908360018111156119fd576119fc612687565b5b021790555050565b60006001811115611a1957611a18612687565b5b600560003373ffffffffffffffffffffffffffffffffffffffff1673ffffffffffffffffffffffffffffffffffffffff16815260200190815260200160002060020160009054906101000a900460ff166001811115611a7b57611a7a612687565b5b14611abb576040517f08c379a0000000000000000000000000000000000000000000000000000000008152600401611ab290612fb9565b60405180910390fd5b600760008273ffffffffffffffffffffffffffffffffffffffff1673ffffffffffffffffffffffffffffffffffffffff16815260200190815260200160002060009054906101000a900460ff1615611b48576040517f08c379a0000000000000000000000000000000000000000000000000000000008152600401611b3f9061368f565b60405180910390fd5b6040518060c00160405280858152602001848152602001836001811115611b7257611b71612687565b5b81526020018273ffffffffffffffffffffffffffffffffffffffff16815260200160001515815260200160006001811115611bb057611baf612687565b5b815250600560008373ffffffffffffffffffffffffffffffffffffffff1673ffffffffffffffffffffffffffffffffffffffff1681526020019081526020016000206000820151816000019081611c079190613473565b506020820151816001019081611c1d9190613473565b5060408201518160020160006101000a81548160ff02191690836001811115611c4957611c48612687565b5b021790555060608201518160020160016101000a81548173ffffffffffffffffffffffffffffffffffffffff021916908373ffffffffffffffffffffffffffffffffffffffff16021790555060808201518160020160156101000a81548160ff02191690831515021790555060a08201518160020160166101000a81548160ff02191690836001811115611ce057611cdf612687565b5b02179055509050506006819080600181540180825580915050600190039060005260206000200160009091909190916101000a81548173ffffffffffffffffffffffffffffffffffffffff021916908373ffffffffffffffffffffffffffffffffffffffff160217905550611d556003612513565b611d5f6003612529565b6004819055506001600760008373ffffffffffffffffffffffffffffffffffffffff1673ffffffffffffffffffffffffffffffffffffffff16815260200190815260200160002060006101000a81548160ff02191690831515021790555050505050565b60068181548110611dd357600080fd5b906000526020600020016000915054906101000a900473ffffffffffffffffffffffffffffffffffffffff1681565b60008060000154905081565b600073ffffffffffffffffffffffffffffffffffffffff16600560003373ffffffffffffffffffffffffffffffffffffffff1673ffffffffffffffffffffffffffffffffffffffff16815260200190815260200160002060020160019054906101000a900473ffffffffffffffffffffffffffffffffffffffff1673ffffffffffffffffffffffffffffffffffffffff1603611edf576040517f08c379a0000000000000000000000000000000000000000000000000000000008152600401611ed69061310e565b60405180910390fd5b60006001811115611ef357611ef2612687565b5b600560003373ffffffffffffffffffffffffffffffffffffffff1673ffffffffffffffffffffffffffffffffffffffff16815260200190815260200160002060020160169054906101000a900460ff166001811115611f5557611f54612687565b5b14611f95576040517f08c379a0000000000000000000000000000000000000000000000000000000008152600401611f8c906131a0565b60405180910390fd5b60006002811115611fa957611fa8612687565b5b600160006001600254611fbc9190613008565b815260200190815260200160002060050160009054906101000a900460ff166002811115611fed57611fec612687565b5b1461202d576040517f08c379a0000000000000000000000000000000000000000000000000000000008152600401612024906132a7565b60405180910390fd5b6001600560003373ffffffffffffffffffffffffffffffffffffffff1673ffffffffffffffffffffffffffffffffffffffff16815260200190815260200160002060020160156101000a81548160ff021916908315150217905550565b600060045482106120d0576040517f08c379a00000000000000000000000000000000000000000000000000000000081526004016120c7906136fb565b60405180910390fd5b600682815481106120e4576120e361322c565b5b9060005260206000200160009054906101000a900473ffffffffffffffffffffffffffffffffffffffff169050919050565b600073ffffffffffffffffffffffffffffffffffffffff16600560003373ffffffffffffffffffffffffffffffffffffffff1673ffffffffffffffffffffffffffffffffffffffff16815260200190815260200160002060020160019054906101000a900473ffffffffffffffffffffffffffffffffffffffff1673ffffffffffffffffffffffffffffffffffffffff16036121e7576040517f08c379a00000000000000000000000000000000000000000000000000000000081526004016121de9061310e565b60405180910390fd5b600060018111156121fb576121fa612687565b5b600560003373ffffffffffffffffffffffffffffffffffffffff1673ffffffffffffffffffffffffffffffffffffffff16815260200190815260200160002060020160169054906101000a900460ff16600181111561225d5761225c612687565b5b1461229d576040517f08c379a0000000000000000000000000000000000000000000000000000000008152600401612294906131a0565b60405180910390fd5b60011515600560003373ffffffffffffffffffffffffffffffffffffffff1673ffffffffffffffffffffffffffffffffffffffff16815260200190815260200160002060020160159054906101000a900460ff16151514612333576040517f08c379a000000000000000000000000000000000000000000000000000000000815260040161232a90613767565b60405180910390fd5b6000151560016000600160025461234a9190613008565b815260200190815260200160002060020160003373ffffffffffffffffffffffffffffffffffffffff1673ffffffffffffffffffffffffffffffffffffffff16815260200190815260200160002060009054906101000a900460ff161515146123e8576040517f08c379a00000000000000000000000000000000000000000000000000000000081526004016123df906137d3565b60405180910390fd5b60006001600060016002546123fd9190613008565b815260200190815260200160002090508060040160008381526020019081526020016000206002016000815480929190612436906137f3565b91905055506001806000600160025461244f9190613008565b815260200190815260200160002060020160003373ffffffffffffffffffffffffffffffffffffffff1673ffffffffffffffffffffffffffffffffffffffff16815260200190815260200160002060006101000a81548160ff0219169083151502179055506000600560003373ffffffffffffffffffffffffffffffffffffffff1673ffffffffffffffffffffffffffffffffffffffff16815260200190815260200160002060020160156101000a81548160ff0219169083151502179055505050565b6001816000016000828254019250508190555050565b600081600001549050919050565b60405180606001604052806060815260200160608152602001600081525090565b6000604051905090565b600080fd5b600080fd5b600073ffffffffffffffffffffffffffffffffffffffff82169050919050565b60006125978261256c565b9050919050565b6125a78161258c565b81146125b257600080fd5b50565b6000813590506125c48161259e565b92915050565b6000602082840312156125e0576125df612562565b5b60006125ee848285016125b5565b91505092915050565b600081519050919050565b600082825260208201905092915050565b60005b83811015612631578082015181840152602081019050612616565b60008484015250505050565b6000601f19601f8301169050919050565b6000612659826125f7565b6126638185612602565b9350612673818560208601612613565b61267c8161263d565b840191505092915050565b7f4e487b7100000000000000000000000000000000000000000000000000000000600052602160045260246000fd5b600281106126c7576126c6612687565b5b50565b60008190506126d8826126b6565b919050565b60006126e8826126ca565b9050919050565b6126f8816126dd565b82525050565b6127078161258c565b82525050565b60008115159050919050565b6127228161270d565b82525050565b6002811061273957612738612687565b5b50565b600081905061274a82612728565b919050565b600061275a8261273c565b9050919050565b61276a8161274f565b82525050565b600060c082019050818103600083015261278a818961264e565b9050818103602083015261279e818861264e565b90506127ad60408301876126ef565b6127ba60608301866126fe565b6127c76080830185612719565b6127d460a0830184612761565b979650505050505050565b6000819050919050565b6127f2816127df565b81146127fd57600080fd5b50565b60008135905061280f816127e9565b92915050565b6000806040838503121561282c5761282b612562565b5b600061283a85828601612800565b925050602061284b85828601612800565b9150509250929050565b60006020828403121561286b5761286a612562565b5b600061287984828501612800565b91505092915050565b600081519050919050565b600082825260208201905092915050565b6000819050602082019050919050565b600082825260208201905092915050565b60006128ca826125f7565b6128d481856128ae565b93506128e4818560208601612613565b6128ed8161263d565b840191505092915050565b612901816127df565b82525050565b6000606083016000830151848203600086015261292482826128bf565b9150506020830151848203602086015261293e82826128bf565b915050604083015161295360408601826128f8565b508091505092915050565b600061296a8383612907565b905092915050565b6000602082019050919050565b600061298a82612882565b612994818561288d565b9350836020820285016129a68561289e565b8060005b858110156129e257848403895281516129c3858261295e565b94506129ce83612972565b925060208a019950506001810190506129aa565b50829750879550505050505092915050565b60006020820190508181036000830152612a0e818461297f565b905092915050565b60038110612a2757612a26612687565b5b50565b6000819050612a3882612a16565b919050565b6000612a4882612a2a565b9050919050565b612a5881612a3d565b82525050565b6000602082019050612a736000830184612a4f565b92915050565b612a82816127df565b82525050565b60006060820190508181036000830152612aa2818661264e565b90508181036020830152612ab6818561264e565b9050612ac56040830184612a79565b949350505050565b6000602082019050612ae26000830184612a79565b92915050565b602082016000820151612afe60008501826128f8565b50505050565b6000608082019050612b196000830187612a79565b612b266020830186612a79565b612b336040830185612ae8565b612b406060830184612a4f565b95945050505050565b600080fd5b600080fd5b7f4e487b7100000000000000000000000000000000000000000000000000000000600052604160045260246000fd5b612b8b8261263d565b810181811067ffffffffffffffff82111715612baa57612ba9612b53565b5b80604052505050565b6000612bbd612558565b9050612bc98282612b82565b919050565b600067ffffffffffffffff821115612be957612be8612b53565b5b612bf28261263d565b9050602081019050919050565b82818337600083830152505050565b6000612c21612c1c84612bce565b612bb3565b905082815260208101848484011115612c3d57612c3c612b4e565b5b612c48848285612bff565b509392505050565b600082601f830112612c6557612c64612b49565b5b8135612c75848260208601612c0e565b91505092915050565b600080600060608486031215612c9757612c96612562565b5b6000612ca586828701612800565b935050602084013567ffffffffffffffff811115612cc657612cc5612567565b5b612cd286828701612c50565b925050604084013567ffffffffffffffff811115612cf357612cf2612567565b5b612cff86828701612c50565b9150509250925092565b60028110612d1657600080fd5b50565b600081359050612d2881612d09565b92915050565b60008060008060808587031215612d4857612d47612562565b5b6000612d56878288016125b5565b945050602085013567ffffffffffffffff811115612d7757612d76612567565b5b612d8387828801612c50565b935050604085013567ffffffffffffffff811115612da457612da3612567565b5b612db087828801612c50565b9250506060612dc187828801612d19565b91505092959194509250565b60008060408385031215612de457612de3612562565b5b600083013567ffffffffffffffff811115612e0257612e01612567565b5b612e0e85828601612c50565b925050602083013567ffffffffffffffff811115612e2f57612e2e612567565b5b612e3b85828601612c50565b9150509250929050565b600080600060608486031215612e5e57612e5d612562565b5b6000612e6c86828701612800565b9350506020612e7d86828701612800565b9250506040612e8e86828701612800565b9150509250925092565b6000602082019050612ead6000830184612719565b92915050565b60008060008060808587031215612ecd57612ecc612562565b5b600085013567ffffffffffffffff811115612eeb57612eea612567565b5b612ef787828801612c50565b945050602085013567ffffffffffffffff811115612f1857612f17612567565b5b612f2487828801612c50565b9350506040612f3587828801612d19565b9250506060612f46878288016125b5565b91505092959194509250565b6000602082019050612f6760008301846126fe565b92915050565b7f416363657320696e746572646974000000000000000000000000000000000000600082015250565b6000612fa3600e83612602565b9150612fae82612f6d565b602082019050919050565b60006020820190508181036000830152612fd281612f96565b9050919050565b7f4e487b7100000000000000000000000000000000000000000000000000000000600052601160045260246000fd5b6000613013826127df565b915061301e836127df565b925082820390508181111561303657613035612fd9565b5b92915050565b7f4e487b7100000000000000000000000000000000000000000000000000000000600052602260045260246000fd5b6000600282049050600182168061308357607f821691505b6020821081036130965761309561303c565b5b50919050565b7f566f7573206e276574657320706173206d656d627265206465206e6f7472652060008201527f4f4e470000000000000000000000000000000000000000000000000000000000602082015250565b60006130f8602383612602565b91506131038261309c565b604082019050919050565b60006020820190508181036000830152613127816130eb565b9050919050565b7f566f7573206e276176657a20706c7573206c652064726f697420646520766f7460008201527f6572000000000000000000000000000000000000000000000000000000000000602082015250565b600061318a602283612602565b91506131958261312e565b604082019050919050565b600060208201905081810360008301526131b98161317d565b9050919050565b7f496e74657276616c6c6520696e76616c69646500000000000000000000000000600082015250565b60006131f6601383612602565b9150613201826131c0565b602082019050919050565b60006020820190508181036000830152613225816131e9565b9050919050565b7f4e487b7100000000000000000000000000000000000000000000000000000000600052603260045260246000fd5b7f4c612073657373696f6e20612064656a61206465627574650000000000000000600082015250565b6000613291601883612602565b915061329c8261325b565b602082019050919050565b600060208201905081810360008301526132c081613284565b9050919050565b60008190508160005260206000209050919050565b60006020601f8301049050919050565b600082821b905092915050565b6000600883026133297fffffffffffffffffffffffffffffffffffffffffffffffffffffffffffffffff826132ec565b61333386836132ec565b95508019841693508086168417925050509392505050565b6000819050919050565b600061337061336b613366846127df565b61334b565b6127df565b9050919050565b6000819050919050565b61338a83613355565b61339e61339682613377565b8484546132f9565b825550505050565b600090565b6133b36133a6565b6133be818484613381565b505050565b5b818110156133e2576133d76000826133ab565b6001810190506133c4565b5050565b601f821115613427576133f8816132c7565b613401846132dc565b81016020851015613410578190505b61342461341c856132dc565b8301826133c3565b50505b505050565b600082821c905092915050565b600061344a6000198460080261342c565b1980831691505092915050565b60006134638383613439565b9150826002028217905092915050565b61347c826125f7565b67ffffffffffffffff81111561349557613494612b53565b5b61349f825461306b565b6134aa8282856133e6565b600060209050601f8311600181146134dd57600084156134cb578287015190505b6134d58582613457565b86555061353d565b601f1984166134eb866132c7565b60005b82811015613513578489015182556001820191506020850194506020810190506134ee565b86831015613530578489015161352c601f891682613439565b8355505b6001600288020188555050505b505050505050565b7f4d656d627265206e6f6e206578697374616e742e000000000000000000000000600082015250565b600061357b601483612602565b915061358682613545565b602082019050919050565b600060208201905081810360008301526135aa8161356e565b9050919050565b7f456e7472657a20756e6520646174652076616c69646500000000000000000000600082015250565b60006135e7601683612602565b91506135f2826135b1565b602082019050919050565b60006020820190508181036000830152613616816135da565b9050919050565b7f416472657373652064656a61207574696c697365652070617220756e2061757460008201527f7265206d656d6272652e00000000000000000000000000000000000000000000602082015250565b6000613679602a83612602565b91506136848261361d565b604082019050919050565b600060208201905081810360008301526136a88161366c565b9050919050565b7f496e64657820686f7273206c696d697465730000000000000000000000000000600082015250565b60006136e5601283612602565b91506136f0826136af565b602082019050919050565b60006020820190508181036000830152613714816136d8565b9050919050565b7f566f7573206e27657465732070617320756e20766f74616e7400000000000000600082015250565b6000613751601983612602565b915061375c8261371b565b602082019050919050565b6000602082019050818103600083015261378081613744565b9050919050565b7f44656a6120766f74650000000000000000000000000000000000000000000000600082015250565b60006137bd600983612602565b91506137c882613787565b602082019050919050565b600060208201905081810360008301526137ec816137b0565b9050919050565b60006137fe826127df565b91507fffffffffffffffffffffffffffffffffffffffffffffffffffffffffffffffff82036138305761382f612fd9565b5b60018201905091905056fea26469706673582212205801e573da73661b04d319a8e0bbbd2e77f45889be85cc717dcd4e0a017ff1af64736f6c63430008180033",
  "linkReferences": {},
  "deployedLinkReferences": {}
}